:020000040000FA
:0400000007EF00F016
:10000800578237ED02F046EF24F004EC28F0B8EC04
:1000180024F00C0E9AEC2AF0000E01019E6F000EDF
:100028009F6F000EA06F000EA16FEBEC25F088C04B
:1000380044F089C045F00001E551D8A4FED181A45F
:1000480004D001019C6B9C2B02D001019C6B9C513C
:100058000001E06FE16B81A604D001019C6B9C2B31
:1000680002D001019C6B9C510001DE6FDF6B80A206
:1000780004D001019C6B9C2B02D001019C6B9C510C
:100088000001DC6FDD6B76EC21F00001FE51D8A495
:1000980024D0C4C098F0C5C099F0C6C09AF0C7C0B3
:1000A8009BF0000E9C6F000E9D6F700E9E6F410EB0
:1000B8009F6FF6EC1DF00001D8B00AD0BBBF0DD081
:1000C800BB51BA11B91104E1AA0EB85DD8A005D088
:1000D800AAEC2AF00AEC04F0A8D1E651D8A43DD045
:1000E800FE51D8A43AD0D890D835D96ED935DA6E21
:1000F800600ED926010EDA22DE50DE10D8B42DD0DB
:10010800C4C098F0C5C099F0C6C09AF0C7C09BF0AB
:10011800000E01019C6F010E9D6FD8900001D8352B
:10012800D96ED935DA6ED890D936DA3601019C51B4
:10013800D9269D51DA22DECF9CF0DECF9DF0DECFAE
:100148009EF0DECF9FF0F6EC1DF00001D8A005D0A0
:10015800AAEC2AF0DAEC20F068D1FE51D8A41CD021
:10016800DE51E02501019C6F0001DF51E121010111
:100178009D6F0001DC5101019C270001DD51010147
:100188009D239C519D11D8B407D0AAEC2AF0EEEC1F
:1001980018F045EC29F049D10001FE51D8A41FD030
:1001A800FEEC29F09EC180F09FC181F0A0C182F0D1
:1001B800A1C183F0E80E0001846F030E856F000E65
:1001C800866F000E876F24EC25F0000180518111A5
:1001D80082118311D8A429D1BDEC1CF026D1FE05CB
:1001E800D8A423D19EC180F09FC181F0A0C182F024
:1001F800A1C183F0B80E846F0B0E856F000E866F59
:10020800000E876F24EC25F00001805181118211C6
:100218008311D8A40AD1010E9AEC2AF0110E01011B
:100228009C6F3A0EE82EFED79C2FFCD700F00001F9
:10023800D051D111D8A403D04AEC22F0F6D00A0E3E
:10024800D019D111D8B40FD0140ED019D111D8B4F7
:100258000AD01E0ED019D111D8B405D0280ED01945
:10026800D111D8A450D0A0EC26F00001D251D3115E
:10027800D8A411D0D0C080F0D1C081F0000E836F17
:100288000A0E826F7FEC24F0000180518111D8A4FE
:1002980002D0CE4BCF2BCFBFC8D0CF5104E1020E36
:1002A800CE5DD8A0C2D0010E9AEC2AF0110E010141
:1002B8009C6F3A0EE82EFED79C2FFCD700F0C70E95
:1002C80000018E6FFE0E8F6F81EC10F0C00E9AEC5D
:1002D8002AF0AE0E00018E6FFD0E8F6F81EC10F0CC
:1002E800070E01019D6F580E9C6F590EE82EFED720
:1002F8009C2FFCD79D2FFAD700D0000E0001CF6F9E
:10030800000ECE6F7DD0D0C080F0D1C081F0000E3D
:10031800836F0A0E826F8DEC22F0000181BF4CD0F2
:10032800815103E18005D8A047D0D0C080F0D1C06A
:1003380081F0000E836F0A0E826F8DEC22F00001AF
:1003480081BF06D0815138E1050E805DD8B034D028
:10035800D0C080F0D1C081F0000E836F0A0E826F8A
:100368007FEC24F0000181BF27D0815103E1800593
:10037800D8A022D094EC07F0000E0001836F0A0E7B
:10038800826FD0C080F0D1C081F08DEC22F080C0A7
:1003980088F081C089F0000E00018B6F0A0E8A6F09
:1003A80059EC29F088C0D0F089C0D1F0000E0001C6
:1003B800CF6F000ECE6F39D0320ED019D111D8A41C
:1003C80024D0B7EC29F0900E9AEC2AF05A0E0001CE
:1003D8008E6FFE0E8F6FFCC090F0FDC091F081EC27
:1003E80010F0FF0E0001FC25FC6FFF0EFD21FD6FD4
:1003F800FC51FD11D8A419D0000EFD6F030EFC6F3F
:10040800000ED16F000ED06F10D0330ED019D1115D
:10041800D8A40BD07EEC2AF0000E0001D16F000E9C
:10042800D06F000EFD6F030EFC6F010E01019E27B9
:10043800000E9F23A023A123FED58C808C92040E4E
:1004480001019C6F3D0EE82EFED79C2FFCD700D0F3
:100458008C90030E01019C6F970EE82EFED79C2FFF
:10046800FCD700D0E8D50600D9CF28F0DACF29F09C
:10047800F3CF2AF0F4CF2BF0F6CF2CF0F7CF2DF0F6
:10048800F8CF2EF0F5CF2FF0F0A06AD1F090813898
:100498000F0B0F0B326E0D0E3224F66EF76AFD0E3F
:1004A800F7220800F5CF33F0310E3318D8B40CD04A
:1004B800320E3318D8B408D0330E3318D8B404D059
:1004C800340E3318D8A480D00001D051D111D8A44B
:1004D8005AD0D00E236EFF0E246E3350256E266A36
:1004E80023502526245026222550445C4550800A56
:1004F800276E2650800A2758D8B02FD0010EB7ECA7
:100508002AF0110E236E3A0EE82EFED7232EFCD7C2
:1005180000D0580E0D6EFD0E0E6EAFEC11F0C00E31
:10052800B7EC2AF0AD0E0D6EFE0E0E6EAFEC11F0AC
:10053800900EB7EC2AF09D0E0D6EFD0E0E6EAFEC10
:1005480011F0070E246E580E236E5A0EE82EFED7B1
:10055800232EFCD7242EFAD747D1D00E3324016E90
:10056800026AFF0E0222000E046E0A0E036E80EC71
:1005780029F001C0D0F002C0D1F0000E0001CF6F09
:10058800000ECE6F31D10A0ED019D111D8B40FD0C8
:10059800140ED019D111D8B40AD01E0ED019D11109
:1005A800D8B405D0280ED019D111D8A41DD13350F4
:1005B800D025236E000ED121246ED00E2324D06FB7
:1005C800FF0E2420D16F10D1300E3318D8A409D0D3
:1005D8000001D051D111D8A407D1000ED16F320E2D
:1005E80099D0430E3318D8A40FD0320E0001D01979
:1005F800D111D8A4F9D0000ED16F330ED06F000EF0
:10060800FD6F030EFC6FF0D0410E3318D8A403D051
:10061800C9EC19F0E9D0440E3318D8A40BD0000166
:10062800E551D8A402D0010E01D0000EE56F8C90E0
:100638008C92DAD0420E3318D8A463D0010EB7ECEE
:100648002AF0110E236E3A0EE82EFED7232EFCD781
:1006580000D00001CC4BCD2B030ECC15CC6FCD6B4D
:10066800030ECC15236E000ECD15246E2304241022
:10067800D8A407D0E50E0D6EFF0E0E6EAFEC11F08C
:1006880034D0030ECC15236E000ECD15246E020E49
:1006980023182410D8A407D06A0E0D6EFF0E0E6E14
:1006A800AFEC11F022D0030ECC15236E000ECD1541
:1006B800246E030E23182410D8A407D0DE0E0D6E66
:1006C800FF0E0E6EAFEC11F010D0030ECC15236E9A
:1006D800000ECD15246E23502410D8A406D0600E29
:1006E8000D6EFF0E0E6EAFEC11F00B0E246E260E83
:1006F800236E5E0EE82EFED7232EFCD7242EFAD7C3
:1007080073D0320E0001D019D111D8A405D0000E33
:10071800D16F000ED06F68D0010EB7EC2AF0110E21
:10072800236E3A0EE82EFED7232EFCD700D0580EA3
:100738000D6EFD0E0E6EAFEC11F0C00EB7EC2AF088
:10074800AD0E0D6EFE0E0E6EAFEC11F0900EB7EC06
:100758002AF09D0E0D6EFD0E0E6EAFEC11F0F1D667
:10076800F2A242D081A003D0236A232A01D0236AAF
:100778002350306E316A30043110D8A434D040C0D0
:1007880001F041C002F042C003F043C004F0000E83
:10079800056E000E066E800E076E3F0E086E72EC38
:1007A8000CF001C040F002C041F003C042F004C0A8
:1007B80043F040C001F041C002F042C003F043C022
:1007C80004F0000E056E000E066EA70E076E430EAF
:1007D800086E3DEC0FF001C0C8F002C0C9F003C0BC
:1007E800CAF004C0CBF0F2922FC0F5FF2EC0F8FF7C
:1007F8002DC0F7FF2CC0F6FF2BC0F4FF2AC0F3FF73
:1008080029C0DAFF28C0D9FF57921100010E9AECCF
:100818002AF0110E0001A76F3A0EE82EFED7A72F77
:10082800FCD700F0740E00018E6FFF0E8F6F81EC05
:1008380010F00001DA05DB11D8A410D08C908C825E
:10084800040E0001A86F4D0EA76F230EE82EFED7E9
:10085800A72FFCD7A82FFAD78C9214D0020EDA193A
:10086800DB11D8A40FD08C808C92040E0001A86FE5
:100878004D0EA76F230EE82EFED7A72FFCD7A82F63
:10088800FAD78C90F292F288F18C000E0001C86FB2
:10089800000EC96F000ECA6F000ECB6F000E406EBF
:1008A800000E416E000E426E000E436E02D042EC06
:1008B80027F0C8C098F0C9C099F0CAC09AF0CBC058
:1008C8009BF0CD0E00019C6FCC0E9D6FDC0E9E6FD1
:1008D8003F0E9F6FF6EC1DF00001D8A0E8D7AAECF8
:1008E8002AF0000E0001C86F000EC96F000ECA6F13
:1008F800000ECB6F000E406E000E416E000E426E71
:10090800000E436E02D05EEC2AF0C8C098F0C9C051
:1009180099F0CAC09AF0CBC09BF0660E0001846FB4
:10092800660E856FE60E866F3F0E876FC4C080F037
:10093800C5C081F0C6C082F0C7C083F0EBEC0AF0F6
:1009480080C09CF081C09DF082C09EF083C09FF063
:10095800F6EC1DF00001D8A0D6D7AAEC2AF0000EBC
:100968000001C86F000EC96F000ECA6F000ECB6F72
:10097800000E406E000E416E000E426E000E436E79
:1009880002D090EC28F0C8C098F0C9C099F0CAC04D
:100998009AF0CBC09BF0CD0E00019C6FCC0E9D6FE2
:1009A800DC0E9E6F3F0E9F6FF6EC1DF00001D8A085
:1009B800E8D7AAEC2AF0000E0001C86F000EC96F34
:1009C800000ECA6F000ECB6F000E406E000E416E17
:1009D800000E426E000E436EF292F298000EAD6F5A
:1009E800000EAE6F000EAF6F000EB06FE605D8B404
:1009F80024D02CD0898A090E0001A76F1C0EE82E7E
:100A0800FED7A72FFCD700F0899A360E0001A76FF2
:100A1800910EE82EFED7A72FFCD7010E0001AD27B7
:100A2800000EAE23AF23B023040E0001A76F3D0EC6
:100A3800E82EFED7A72FFCD700D00001B051AF1188
:100A4800AE1104E13C0EAD5DD8A0D4D737EC20F050
:100A5800F2C088F00001896B0E0E8B6F100E8A6F42
:100A680059EC29F00001F1513C0DF3CFA7F0F4CF78
:100A7800A8F08851A7278951A823F051A727000E6D
:100A8800A823A7C0BCF0A8C0BDF0000EBDBFFF0ED4
:100A9800BE6FBF6FC051BC5DB86FC151BD59B96F52
:100AA800C251BE59BA6FC351BF59BB6FB8C08AF0A3
:100AB800B9C08BF0BAC08CF0BBC08DF0100E8E6F31
:100AC8000E0E8F6F000E906F000E916F5FEC1EF090
:100AD80000018A51F96F100E846F0E0E856F000E9B
:100AE800866F000E876FB8C080F0B9C081F0BAC0B9
:100AF80082F0BBC083F08AEC1FF080C08AF081C00E
:100B08008BF082C08CF083C08DF03C0E00018E6F9C
:100B1800000E8F6F000E906F000E916F5FEC1EF04D
:100B280000018A51F86F100E846F0E0E856F000E4B
:100B3800866F000E876FB8C080F0B9C081F0BAC068
:100B480082F0BBC083F08AEC1FF080C0A9F081C09E
:100B5800AAF082C0ABF083C0ACF0A9C080F0AAC0F4
:100B680081F0ABC082F0ACC083F03C0E0001846F12
:100B7800000E856F000E866F000E876F8AEC1FF0DF
:100B880000018051F76FF6EC16F0010E0001FE6FC0
:100B9800000ED56F000ED46F1200000E0001A56F75
:100BA800000EA66F000EA76F000EA86F80A6BAD021
:100BB800010E9AEC2AF0110E0001A36F3A0EE82EEE
:100BC800FED7A32FFCD700F0BA0E00018E6FFE0EE1
:100BD8008F6F81EC10F024D08988040E0001A36F78
:100BE800E40EE82EFED7A32FFCD700F089983A0E22
:100BF8000001A36FC90EE82EFED7A32FFCD700D0A3
:100C0800010E0001A527000EA623A723A823040E82
:100C18000001A36F3D0EE82EFED7A32FFCD700D00E
:100C28000001A851A711A61104E1460EA55DD8A0A0
:100C3800D3D7000EA56F000EA66F000EA76F000E8B
:100C4800A86F1ED0898AFA0E00D0E82EFDD7899A9F
:100C58003D0E0001A36F0F0EE82EFED7A32FFCD781
:100C6800010E0001A527000EA623A723A823040E22
:100C78000001A36F3D0EE82EFED7A32FFCD700D0AE
:100C88000001A851A711A61104E13C0EA55DD8A04A
:100C9800D9D7000EA56F000EA66F000EA76F000E25
:100CA800A86F24D08988060E0001A36F000EE82ED5
:100CB800FED7A32FFCD700D08998380E0001A36F68
:100CC800AD0EE82EFED7A32FFCD700F0010E0001D1
:100CD800A527000EA623A723A823040E0001A36FAF
:100CE8003D0EE82EFED7A32FFCD700D00001A85157
:100CF800A711A61104E1460EA55DD8A0D3D7020E10
:100D08000001A46F450EA36FA90EE82EFED7A32FEE
:100D1800FCD7A42FFAD700D00001D64BD72B010E51
:100D2800E66F1200000EA56F000EA66F000EA76FEB
:100D3800000EA86F24D08988040E0001A36FE40E6A
:100D4800E82EFED7A32FFCD700F089983A0E0001B1
:100D5800A36FC90EE82EFED7A32FFCD700D0010E33
:100D68000001A527000EA623A723A823040E00012F
:100D7800A36F3D0EE82EFED7A32FFCD700D00001AD
:100D8800A851A711A61104E1460EA55DD8A0D3D796
:100D9800000EA56F000EA66F000EA76F000EA86FBD
:100DA8001ED0898AFA0E00D0E82EFDD7899A3D0E0A
:100DB8000001A36F0F0EE82EFED7A32FFCD7010E5C
:100DC8000001A527000EA623A723A823040E0001CF
:100DD800A36F3D0EE82EFED7A32FFCD700D000014D
:100DE800A851A711A61104E13C0EA55DD8A0D9D73A
:100DF800020E0001A46F450EA36FA90EE82EFED7C0
:100E0800A32FFCD7A42FFAD700D0000E0001A56F9E
:100E1800000EA66F000EA76F000EA86F23D0898A58
:100E2800090E0001A36F1C0EE82EFED7A32FFCD7D6
:100E380000F0899A360E0001A36F910EE82EFED7B6
:100E4800A32FFCD7010E0001A527000EA623A72378
:100E5800A823040E0001A36F3D0EE82EFED7A32F92
:100E6800FCD700D00001A851A711A61104E13C0E3F
:100E7800A55DD8A0D4D7020E0001A46F450EA36FBC
:100E8800A90EE82EFED7A32FFCD7A42FFAD700D09F
:100E9800000E0001A56F000EA66F000EA76F000ED2
:100EA800A86F24D08988060E0001A36F000EE82ED3
:100EB800FED7A32FFCD700D08998380E0001A36F66
:100EC800AD0EE82EFED7A32FFCD700F0010E0001CF
:100ED800A527000EA623A723A823040E0001A36FAD
:100EE8003D0EE82EFED7A32FFCD700D00001A85155
:100EF800A711A61104E1460EA55DD8A0D3D7020E0E
:100F08000001A46F450EA36FA90EE82EFED7A32FEC
:100F1800FCD7A42FFAD700D00001D64BD72B12004C
:100F28006DEC29F0000E01019B6F000E9A6FD0C086
:100F380080F0D1C081F0000E0001836F0A0E826F2D
:100F48007FEC24F0000180058111D8A41CD0445006
:100F5800380DF3CF92F1D0C080F0D1C081F0000EEF
:100F6800836F0A0E826F8DEC22F000018051C80D4C
:100F7800F35001019225360F0001E26F000E0101C6
:100F88009B6F030E57D0D0C080F0D1C081F0000E07
:100F9800836F0A0E826F7FEC24F0020E0001801925
:100FA8008111D8A41CD04450380DF3CF92F1D0C091
:100FB80080F0D1C081F0000E836F0A0E826F8DEC35
:100FC80022F000018051C80DF35001019225330F22
:100FD8000001E26F000E01019B6F010E2BD0D0C003
:100FE80080F0D1C081F0000E836F0A0E826F7FEC13
:100FF80024F0030E000180198111D8A41DD044509B
:10100800380DF3CF92F1D0C080F0D1C081F0000E3E
:10101800836F0A0E826F8DEC22F000018051C80D9B
:10102800F35001019225320F0001E26F000E010119
:101038009B6F190E9A6F26D0D0C080F0D1C081F076
:10104800000E836F0A0E826F7FEC24F0040E0001FD
:1010580080198111D8A416D04450380DF3CF92F1DD
:10106800D0C080F0D1C081F0000E836F0A0E826F6D
:101078008DEC22F000018051C80DF350010192253A
:10108800190FD2D70DEC2AF0190E01019A199B11EC
:10109800D8A462D0E3C080F00001E4512BEC2AF020
:1010A8000101926F9251786F796B0001E42BE45142
:1010B800D8B4E32B000E0101956F000E946F000E5B
:1010C800996F010E986F3DD098B12BD0E3C080F096
:1010D8000001E4512BEC2AF00101926F9251942700
:1010E800000E952398C180F099C181F0000E00018F
:1010F800836F020E826F8DEC22F0D890000180374A
:101108008137780E8025D96E010E8121DA6E94C15F
:10111800DEFF95C1DDFF000E0101956F000E946F93
:1011280008D0E3C080F00001E4512BEC2AF0010163
:1011380095270001E42BE451D8B4E32B0101984B27
:10114800992B9A51985D9951800A926F9B51800A08
:101158009259D8B02ED0B8D7000E976F000E966F60
:101168001ED0E3C080F00001E4512BEC2AF001010D
:10117800926F936BD8909635D96E9735DA6E780E54
:10118800D926010EDA2292C1DEFF93C1DDFF0001EC
:10119800E42BE451D8B4E32B0101964B972B9A51D9
:1011A800965D9751800A926F9B51800A9259D8A0F8
:1011B800D8D7D0C080F0D1C081F0000E0001836F75
:1011C8000A0E826F7FEC24F0000180058111D8A4FB
:1011D80007D0780EA36F010EA46F8BEC20F01200DD
:1011E800D0C080F0D1C081F0000E836F0A0E826FEC
:1011F8007FEC24F0020E000180198111D8A407D0D9
:10120800780EA36F010EA46F8AEC25F01200D0C0EF
:1012180080F0D1C081F0000E836F0A0E826F7FECE0
:1012280024F0030E000180198111D8A40BD0780E88
:10123800B26F010EB36F78C1B4F079C1B5F0D0ECDC
:1012480023F01200D0C080F0D1C081F0000E836F6F
:101258000A0E826F7FEC24F0040E000180198111C0
:10126800D8A41200780EB26F010EB36F78C1B4F033
:1012780079C1B5F00BEC24F0120000018351800B0A
:101288008C6F83518325926F82BF92819251D8B41B
:101298000DD09229D8A408D0000E806F000E816F5F
:1012A800000E826F000E836F828F08D0000E806F51
:1012B800000E816F000E826F000E836F8751800BC6
:1012C8008C1B875187258D6F86BF8D818D51D8B432
:1012D8000DD08D29D8A408D0000E846F000E856F1C
:1012E800000E866F000E876F868F08D0000E846F01
:1012F800000E856F000E866F000E876F8D51D8B473
:1013080003D09251D8A409D0000E806F000E816FCF
:10131800000E826F000E836F120086518003F3CF98
:1013280097F0F4CF98F097518E6F8F6B906B916B0D
:101338009851936F946B956B966B85518103F3CF9E
:1013480097F0F4CF98F097518E27000E8F239023B3
:10135800912398519327000E942395239623845123
:101368008203F3CF97F0F4CF98F097518E27000EB1
:101378008F239023912398519327000E942395232C
:10138800962390C091F08FC090F08EC08FF08E6B36
:1013980084518103F3CF97F0F4CF98F097518E27BB
:1013A80098518F23000E9023000E912385518003BE
:1013B800F3CF97F0F4CF98F097518E2798518F2359
:1013C800000E9023000E912390C091F08FC090F0F2
:1013D8008EC08FF08E6B84518003F3CF97F0F4CFDB
:1013E80098F097518E2798518F23000E9023000E66
:1013F800912386518103F3CF97F0F4CF98F097515A
:10140800932798519423000E9523000E9623855117
:101418008203F3CF97F0F4CF98F097519327985120
:101428009423000E9523000E962386518203F3CF52
:1014380097F0F4CF98F09751886F9851896F8A6B1D
:101448008B6B8AC08BF089C08AF088C089F0886B62
:1014580088519327895194238A5195238B51962338
:101468008EC088F08FC089F090C08AF091C08BF050
:10147800190E05D0D8908B338A3389338833E82EF8
:10148800F9D788519327895194238A5195238B51F1
:10149800962390C091F08FC090F08EC08FF08E6B25
:1014A8008D5192C088F0896B8827000E8923820E9F
:1014B8008825976FFF0E8921986F0FD0D8909337A2
:1014C80094379537963791BF9381D8908E378F3759
:1014D800903791379707D8A0980795AFEFD7000EA8
:1014E8008D6F91AF17D0FF0E8E15886FFF0E8F1579
:1014F800896FFF0E90158A6F7F0E91158B6F88513B
:1015080089118A118B11D8B403D0010E8D6F02D0C6
:1015180093B1FBD78D51D8B41FD0010E9327000E7D
:1015280094239523962396A117D093C088F094C04E
:1015380089F095C08AF096C08BF08B358B338A334F
:101548008933883388C093F089C094F08AC095F0B5
:101558008BC096F0974B982B98BF0DD0985103E10C
:101568009729D8A008D0000E936F000E946F800EB4
:10157800956F7F0E20D098BF05D098510EE1970542
:10158800D8B00BD0000E936F000E946F000E956FBD
:10159800000E966F000E8C6F0FD097C092F0FF0E62
:1015A8009317FF0E94177F0E9517000E961792B19A
:1015B800958FD8909231966F8C51961393C080F086
:1015C80094C081F095C082F096C083F012000001AB
:1015D8008351800B8C6F835183258E6F82BF8E81E0
:1015E8008E51D8B40DD08E29D8A408D0000E806FA3
:1015F800000E816F000E826F000E836F828F06D0FF
:10160800000E806F000E816F000E826F000E836FD8
:101618008751800B8D6F8C518D19D8A48C8D875173
:1016280087258D6F86BF8D818D51D8B40DD08D29BA
:10163800D8A408D0000E846F000E856F000E866F48
:10164800000E876F868F06D0000E846F000E856FA0
:10165800000E866F000E876F8E518D5DD8B022D038
:101668008CAD02D0800E8C1B8EC08FF08DC08EF09A
:101678008FC08DF080C08FF084C080F08FC084F060
:1016880081C08FF085C081F08FC085F082C08FF057
:1016980086C082F08FC086F083C08FF087C083F049
:1016A8008FC087F0000E8F6F8E518DC088F0896BC8
:1016B800885F000E895B89BF2CD0895104E11A0E1E
:1016C800885DD8A026D08051811182118311D8B4A9
:1016D80002D0010E01D0000E8F6F000E806F000E39
:1016E800816F000E826F000E836F8DC08EF015D053
:1016F8008FA105D0D8908F3101098F6F02D0D89073
:101708008F3380B18F8F8335833382338133803336
:101718008E2B8D518E5DD8A0EBD78CBD28D08E51E5
:10172800D8A409D0000E806F000E816F000E826F62
:10173800000E836F120084518027855181238651C2
:1017480082238751832383A171D08FA105D0D8909C
:101758008F3101098F6F02D0D8908F3380B18F8F6E
:10176800833583338233813380338E2B5FD084512A
:10177800805D85518159865182598351800A886FCD
:101788008751800A8859D8B025D08051845D886FE8
:1017980081518559896F825186598A6F835187593A
:1017A8008B6FFF0E8825806FFF0E8921816FFF0EDA
:1017B8008A21826FFF0E8B21836F800E8C1B8F6DA9
:1017C8008F51D8A40FD0010E8027000E81238223C9
:1017D800832308D08451805F8551815B8651825B69
:1017E8008751835B8051811182118311D8A41CD049
:1017F8008F51D8A419D0000E806F000E816F000E93
:10180800826F000E836F1200D8908037813782373D
:1018180083378FBF80818FA102D0D88001D0D89024
:101828008F378E51D8A48E0782AFEED7000E8D6FFA
:101838008FAF0BD08FC088F07F0E8817D8B403D035
:10184800010E8D6F02D080B1FBD78D51D8B420D056
:10185800010E8027000E81238223832383A118D0C1
:1018680080C088F081C089F082C08AF083C08BF084
:101878008B358B338A338933883388C080F089C0AD
:1018880081F08AC082F08BC083F08E29D8A48E2B79
:101898008E29D8B403D08E51D8A40DD0000E806FF5
:1018A800000E816F000E826F000E836F8E51D8A4D8
:1018B80002D0000E8C6F8EA102D0828F01D0829F41
:1018C800D8908E31836F8CBF838F80C080F081C0A9
:1018D80081F082C082F083C083F012000450800B34
:1018E8000D6E045004240F6E03BE0F800F50D8B441
:1018F8000DD00F28D8A408D0000E016E000E026E7D
:10190800000E036E000E046E038E06D0000E016EEC
:10191800000E026E000E036E000E046E0850800B5F
:101928000E6E0D500E18D8A40D8C085008240E6E9B
:1019380007BE0E800E50D8B40DD00E28D8A408D0FB
:10194800000E056E000E066E000E076E000E086E85
:10195800078E06D0000E056E000E066E000E076E8E
:10196800000E086E0F500E5CD8B022D00DAC02D01D
:10197800800E0D1A0FC010F00EC00FF010C00EF040
:1019880001C010F005C001F010C005F002C010F051
:1019980006C002F010C006F003C010F007C003F044
:1019A80010C007F004C010F008C004F010C008F020
:1019B800000E106E0F500EC009F00A6A095E000E84
:1019C8000A5A0ABE2CD00A5004E11A0E095CD8A0A3
:1019D80026D00150021003100410D8B402D0010E12
:1019E80001D0000E106E000E016E000E026E000E89
:1019F800036E000E046E0EC00FF015D010A005D0B7
:101A0800D89010300109106E02D0D890103201B071
:101A1800108E043404320332023201320F2A0E507F
:101A28000F5CD8A0EBD70DBC28D00F50D8A409D094
:101A3800000E016E000E026E000E036E000E046EA4
:101A480012000550012606500222075003220850B2
:101A5800042204A071D010A005D0D890103001093C
:101A6800106E02D0D890103201B0108E04340432B7
:101A78000332023201320F2A5FD00550015C065052
:101A88000258075003580450800A096E0850800A0B
:101A98000958D8B025D00150055C096E0250065887
:101AA8000A6E035007580B6E045008580C6EFF0E50
:101AB8000924016EFF0E0A20026EFF0E0B20036E32
:101AC800FF0E0C20046E800E0D1A106C1050D8A456
:101AD8000FD0010E0126000E02220322042208D094
:101AE8000550015E0650025A0750035A0850045A1E
:101AF8000150021003100410D8A41CD01050D8A410
:101B080019D0000E016E000E026E000E036E000E5C
:101B1800046E1200D890013602360336043610BE21
:101B2800018010A002D0D88001D0D89010360F5074
:101B3800D8A40F0603AEEED7000E0E6E10AE0BD073
:101B480010C009F07F0E0916D8B403D0010E0E6E2E
:101B580002D001B0FBD70E50D8B420D0010E012618
:101B6800000E02220322042204A018D001C009F0AA
:101B780002C00AF003C00BF004C00CF00C340C32A5
:101B88000B320A32093209C001F00AC002F00BC058
:101B980003F00CC004F00F28D8A40F2A0F28D8B4DB
:101BA80003D00F50D8A40DD0000E016E000E026EA7
:101BB800000E036E000E046E0F50D8A402D0000E63
:101BC8000D6E0FA002D0038E01D0039ED8900F3067
:101BD800046E0DBE048E01C001F002C002F003C005
:101BE80003F004C004F0120000018351800B906FD1
:101BF80083518325976F82BF97819751D8B40DD0B1
:101C08009729D8A408D0000E806F000E816F000EAF
:101C1800826F000E836F828F06D0000E806F000ED9
:101C2800816F000E826F000E836F8751800B901BAF
:101C380087518725986F86BF98819851D8B40DD061
:101C48009829D8A408D0000E846F000E856F000E66
:101C5800866F000E876F868F06D0000E846F000E89
:101C6800856F000E866F000E876F8451851186116F
:101C78008711D8A417D0000E806F000E816F000E58
:101C8800826F000E836F800E82137F0E8313905134
:101C9800831380C080F081C081F082C082F083C04D
:101CA80083F012009751D8A409D0000E806F000E5F
:101CB800816F000E826F000E836F1200985197C0DB
:101CC80088F0896B885F000E895B7F0E8825916F8D
:101CD800000E8921926F80C08CF081C08DF082C087
:101CE8008EF083C08FF0000E806F000E816F000EA3
:101CF800826F000E836F000E936F000E946F000EBC
:101D0800956F000E966F000E986F28D09851D8B432
:101D180011D0D8908C378D378E378F37D890803741
:101D280081378237833796BF8081D890933794372D
:101D38009537963784518C5D85518D5986518E59CA
:101D480087518F59D8A009D0968D84518C5F8551C1
:101D58008D5B86518E5B87518F5B982B190E98652A
:101D6800D5D78C518D118E118F11D8B411D0938184
:101D78000FD0D890803781378237833796BF8081DC
:101D8800D89093379437953796379107D8A092070C
:101D980082AFEFD7000E986F96AF17D0FF0E93154E
:101DA800886FFF0E9415896FFF0E95158A6F7F0E49
:101DB80096158B6F885189118A118B11D8B403D06D
:101DC800010E986F02D080B1FBD79851D8B41FD0BC
:101DD800010E8027000E81238223832383A117D03D
:101DE80080C088F081C089F082C08AF083C08BF0FF
:101DF8008B358B338A338933883388C080F089C028
:101E080081F08AC082F08BC083F0914B922B92BFF5
:101E180010D0925103E19129D8A00BD0000E926FF7
:101E28009169000E806F000E816F000E826F000EA8
:101E3800836F92BF05D0925111E19105D8B00ED0B1
:101E4800000E926F000E916F000E806F000E816F72
:101E5800000E826F000E836F000E906F91C097F096
:101E680097A102D0828F01D0829FD8909731836F3B
:101E78000ED70450800B116E04500424186E03BE54
:101E880018801850D8B40DD01828D8A408D0000E3F
:101E9800016E000E026E000E036E000E046E038EBD
:101EA80006D0000E016E000E026E000E036E000ECC
:101EB800046E0850800B111A08500824196E07BECA
:101EC80019801950D8B40DD01928D8A408D0000EFC
:101ED800056E000E066E000E076E000E086E078E69
:101EE80006D0000E056E000E066E000E076E000E80
:101EF800086E0550061007100810D8A417D0000E59
:101F0800016E000E026E000E036E000E046E800E4F
:101F180003127F0E04121150041201C001F002C016
:101F280002F003C003F004C004F012001850D8A453
:101F380009D0000E016E000E026E000E036E000E38
:101F4800046E1200195018C009F00A6A095E000EE2
:101F58000A5A7F0E0924126E000E0A20136E01C061
:101F68000DF002C00EF003C00FF004C010F0000E18
:101F7800016E000E026E000E036E000E046E000E5F
:101F8800146E000E156E000E166E000E176E000E03
:101F9800196E28D01950D8B411D0D8900D360E36F5
:101FA8000F361036D890013602360336043617BE7F
:101FB8000180D890143615361636173605500D5C44
:101FC80006500E5807500F5808501058D8A009D07E
:101FD800178C05500D5E06500E5A07500F5A0850C0
:101FE800105A192A190E1964D5D70D500E100F1052
:101FF8001010D8B411D014800FD0D8900136023602
:102008000336043617BE0180D890143615361636B6
:1020180017361206D8A0130603AEEFD7000E196EB6
:1020280017AE17D0FF0E1414096EFF0E15140A6EA2
:10203800FF0E16140B6E7F0E17140C6E09500A1043
:102048000B100C10D8B403D0010E196E02D001B0D9
:10205800FBD71950D8B41FD0010E0126000E02225A
:102068000322042204A017D001C009F002C00AF01C
:1020780003C00BF004C00CF00C340C320B320A32E3
:10208800093209C001F00AC002F00BC003F00CC00D
:1020980004F0124A132A13BE10D0135003E1122879
:1020A800D8A00BD0000E136E1268000E016E000E41
:1020B800026E000E036E000E046E13BE05D01350A0
:1020C80011E11204D8B00ED0000E136E000E126E7D
:1020D800000E016E000E026E000E036E000E046EFE
:1020E800000E116E12C018F018A002D0038E01D095
:1020F800039ED8901830046E0ED7900E00019A6F88
:10210800000E9B6F1AD1250EA219D8B404D0A25183
:10211800A2EC2AF012D1000EA16F000EA06F000EE3
:102128009F6F03D09F858E4B8F2B8EC0F6FF8FC07D
:10213800F7FF0800F550300AD8B4F4D78EC0F6FF80
:102148008FC0F7FF0800F550EDEC29F0D8A035D086
:10215800000E0001A16F000EA06FA0C088F0A1C002
:1021680089F0000E00018B6F0A0E8A6F59EC29F076
:1021780088C0A0F089C0A1F0D00E0001966FFF0EB4
:10218800976F8EC0F6FF8FC0F7FF0800F550986F65
:10219800996B96519827975199239851A02799514F
:1021A800A1238E4B8F2B8EC0F6FF8FC0F7FF080040
:1021B800F550EDEC29F0D8B0D0D78EC0F6FF8FC01F
:1021C800F7FF00018E4B8F2B0800F5CFA2F0A2512C
:1021D800000AD8B41200640AD8B403D00D0AD8A4EF
:1021E800ACD09AC0D9FF9BC0DAFFDECF9DF0DDCF1F
:1021F8009EF0020E9A27000E9B239EAF06D0030E78
:102208009F139D6D9E1FD8B09E2B010EA26FA251E9
:10221800020D1E0EF324F66EFD0EF420F76E090073
:10222800F5509D5D0900F5509E59D8A005D0A22B08
:10223800050EA219D8A4EBD7A051A111D8B409D082
:102248009FC096F0030E9617D8B403D0A007D8A065
:10225800A107A251966F976BA051965D9751800A7E
:10226800986FA151800A9859D8B005D0A251A05FA3
:10227800000EA15B04D0000EA16F000EA06F9FA5F9
:1022880016D09FC096F0030E9617D8B403D02D0E23
:10229800A2EC2AF00001A051A111D8B420D0300E30
:1022A800A2EC2AF00001A007D8A0A107F4D7A051FA
:1022B800A111D8B40BD0200EA2EC2AF00001A0077F
:1022C800D8A0A107A051A111D8A4F5D79FC096F016
:1022D800030E9617D8B403D02D0EA2EC2AF0A2C094
:1022E8009CF026D09C51020D1E0EF324F66EFD0EB6
:1022F800F420F76E0900F5CF82F00A00F5CF83F0DD
:102308009DC080F09EC081F076EC26F080C087F0FA
:1023180081C088F0000E00018A6F0A0E896F4DECAB
:1023280028F000018751300FA26FA251A2EC2AF0C9
:1023380000019C079C29D8A4D5D78EC0F6FF8FC072
:10234800F7FF00018E4B8F2B0800F5CFA2F0A251AA
:10235800D8B41200D8D60F0E136E000E146E11D119
:10236800250E1B18D8B404D01B50B1EC2AF009D1A3
:10237800000E1A6E000E196E000E186E03D0188427
:102388000D4A0E2A0DC0F6FF0EC0F7FF0800F550E3
:10239800300AD8B4F4D70DC0F6FF0EC0F7FF080016
:1023A800F5501CEC2AF0D8A032D0000E1A6E000EA0
:1023B800196E19C001F01AC002F0000E046E0A0E60
:1023C800036E80EC29F001C019F002C01AF0D00E9B
:1023D8000F6EFF0E106E0DC0F6FF0EC0F7FF08005F
:1023E800F550116E126A0F5011261050122211501A
:1023F800192612501A220D4A0E2A0DC0F6FF0EC0D9
:10240800F7FF0800F5501CEC2AF0D8B0D2D70DC061
:10241800F6FF0EC0F7FF0D4A0E2A0800F5CF1BF095
:102428001B50000AD8B41200640AD8B403D00D0AAD
:10243800D8A4A7D013C0D9FF14C0DAFFDECF16F096
:10244800DDCF17F0020E1326000E142217AE06D0A9
:10245800030E1812166C171ED8B0172A010E1B6E21
:10246800050E1B18D8B412D01B50020D1E0EF324F3
:10247800F66EFD0EF420F76E0900F550165C0900A3
:10248800F5501758D8A002D01B2AEAD719501A10AD
:10249800D8B409D018C00FF0030E0F16D8B403D063
:1024A8001906D8A01A061B500F6E106A19500F5C37
:1024B8001050800A116E1A50800A1158D8B005D0F1
:1024C8001B50195E000E1A5A04D0000E1A6E000E28
:1024D800196E18A414D018C00FF0030E0F16D8B434
:1024E80003D02D0EB1EC2AF019501A10D8B41ED012
:1024F800300EB1EC2AF01906D8A01A06F5D71950F3
:102508001A10D8B40AD0200EB1EC2AF01906D8A0B7
:102518001A0619501A10D8A4F6D718C00FF0030ECF
:102528000F16D8B403D02D0EB1EC2AF01BC015F04D
:1025380024D01550020D1E0EF324F66EFD0EF42065
:10254800F76E0900F5CF03F00A00F5CF04F016C0C6
:1025580001F017C002F0C9EC26F001C008F002C073
:1025680009F0000E0B6E0A0E0A6E6FEC28F0085088
:10257800300F1B6E1B50B1EC2AF015061528D8A495
:10258800D8D70DC0F6FF0EC0F7FF0D4A0E2A080077
:10259800F5CF1BF01B50D8B41200E2D60001A56F8E
:1025A800630E0001A519D8A47AD0660E846F660E52
:1025B800856FE20E866F410E876FC4C080F0C5C07C
:1025C80081F0C6C082F0C7C083F041EC09F080C03A
:1025D80099F081C09AF082C09BF083C09CF02CECEB
:1025E8001FF0D8904634D96E4734DA6E300ED926AB
:1025F800010EDA22000199C0DEFF9AC0DDFF464ACB
:10260800472A020EDA19DB11D8A410D08C808C92DC
:10261800080E0001A46F9D0EA36F050EE82EFED7CD
:10262800A32FFCD7A42FFAD700D031D0DA51DB1171
:10263800D8A40FD08C808C92040E0001A46F4D0E8C
:10264800A36F230EE82EFED7A32FFCD7A42FFAD70B
:102658001ED08C808C92A30E0001A36F550EE82E1D
:10266800FED7A32FFCD78C908C92A30E0001A36FEA
:10267800550EE82EFED7A32FFCD78C908C82A30E84
:102688000001A36F550EE82EFED7A32FFCD78C9020
:102698008C92000E0001DB6F010EDA6F1200680EDB
:1026A800A519D8A479D0660E846F660E856FE20EE0
:1026B800866F410E876FC4C080F0C5C081F0C6C068
:1026C80082F0C7C083F041EC09F080C099F081C066
:1026D8009AF082C09BF083C09CF02CEC1FF0D8903D
:1026E8004834D96E4934DA6E480ED926010EDA22FA
:1026F800000199C0DEFF9AC0DDFF484A492ADA0581
:10270800DB11D8A410D08C808C92080E0001A46F25
:102718009D0EA36F050EE82EFED7A32FFCD7A42F7E
:10272800FAD700D031D0DA51DB11D8A40FD08C9071
:102738008C82040E0001A46F4D0EA36F230EE82EA9
:10274800FED7A32FFCD7A42FFAD71ED08C808C924B
:10275800A30E0001A36F550EE82EFED7A32FFCD7BA
:102768008C908C92A30E0001A36F550EE82EFED715
:10277800A32FFCD78C908C82A30E0001A36F550E5B
:10278800E82EFED7A32FFCD78C908C92000E000168
:10279800DB6F020EDA6F1200EC0E8E6FFF0E8F6F7A
:1027A80081EC10F07F0E0001A46FD40EA36F310EE0
:1027B800E82EFED7A32FFCD7A42FFAD700D01200FB
:1027C800000E0001C86F000EC96F000ECA6F000E20
:1027D800CB6F000E406E000E416E000E426E000E72
:1027E800436EC8C0A9F0C9C0AAF0CAC0ABF0CBC03C
:1027F800ACF0C8C0ADF0C9C0AEF0CAC0AFF0CBC035
:10280800B0F003D090EC28F0F4D7A9C094F0AAC097
:1028180095F0ABC096F0ACC097F0ADC090F0AEC0EC
:1028280091F0AFC092F0B0C093F029EC28F090C0BE
:1028380098F091C099F092C09AF093C09BF0CD0E99
:1028480000019C6FCC0E9D6FCC0E9E6F3D0E9F6F4E
:10285800F6EC1DF00001D8A0D5D7AAEC2AF0D1ECEF
:1028680005F0000E0001C86F000EC96F000ECA6F98
:10287800000ECB6F000E406E000E416E000E426ED1
:10288800000E436EC8C0A9F0C9C0AAF0CAC0ABF018
:10289800CBC0ACF0C8C0ADF0C9C0AEF0CAC0AFF094
:1028A800CBC0B0F003D042EC27F0F4D7A9C094F025
:1028B800AAC095F0ABC096F0ACC097F0ADC090F050
:1028C800AEC091F0AFC092F0B0C093F029EC28F000
:1028D80090C098F091C099F092C09AF093C09BF084
:1028E800660E00019C6F660E9D6FE60E9E6F3E0E93
:1028F8009F6FF6EC1DF00001D8A0D5D7AAEC2AF0FE
:102908000001E651D8B4D1EC05F0000E0001C86F03
:10291800000EC96F000ECA6F000ECB6F000E406E1E
:10292800000E416E000E426E000E436EC8C0A9F044
:10293800C9C0AAF0CAC0ABF0CBC0ACF0C8C0ADF0FB
:10294800C9C0AEF0CAC0AFF0CBC0B0F003D090ECB5
:1029580028F0F4D7A9C094F0AAC095F0ABC096F0BF
:10296800ACC097F0ADC090F0AEC091F0AFC092F09F
:10297800B0C093F029EC28F090C098F091C099F07D
:1029880092C09AF093C09BF0330E00019C6F330EF7
:102998009D6FB30E9E6F3E0E9F6FF6EC1DF000010B
:1029A800D8A0D5D7AAEC2AF0000E0001C86F000EF7
:1029B800C96F000ECA6F000ECB6F000E406E000E7E
:1029C800416E000E426E000E436E1200000E0001B2
:1029D800C86F000EC96F000ECA6F000ECB6F000ED5
:1029E800406E000E416E000E426E000E436EC8C06F
:1029F800A9F0C9C0AAF0CAC0ABF0CBC0ACF0C8C03F
:102A0800ADF0C9C0AEF0CAC0AFF0CBC0B0F003D0D3
:102A180090EC28F0F4D7A9C094F0AAC095F0ABC008
:102A280096F0ACC097F0ADC090F0AEC091F0AFC0DA
:102A380092F0B0C093F029EC28F090C098F091C0C3
:102A480099F092C09AF093C09BF0CD0E00019C6F54
:102A5800CC0E9D6F4C0E9E6F3E0E9F6FF6EC1DF0D8
:102A68000001D8A0D5D7AAEC2AF0D1EC05F0000EC9
:102A78000001C86F000EC96F000ECA6F000ECB6F41
:102A8800000E406E000E416E000E426E000E436E48
:102A9800C8C0A9F0C9C0AAF0CAC0ABF0CBC0ACF09E
:102AA800C8C0ADF0C9C0AEF0CAC0AFF0CBC0B0F07E
:102AB80003D042EC27F0F4D7A9C094F0AAC095F04F
:102AC800ABC096F0ACC097F0ADC090F0AEC091F03E
:102AD800AFC092F0B0C093F029EC28F090C098F005
:102AE80091C099F092C09AF093C09BF0660E0001D5
:102AF8009C6F660E9D6FE60E9E6F3E0E9F6FF6EC06
:102B08001DF00001D8A0D5D7AAEC2AF00001E651A3
:102B1800D8B4D1EC05F0000E0001C86F000EC96FE3
:102B2800000ECA6F000ECB6F000E406E000E416E95
:102B3800000E426E000E436EC8C0A9F0C9C0AAF0CC
:102B4800CAC0ABF0CBC0ACF0C8C0ADF0C9C0AEF0E5
:102B5800CAC0AFF0CBC0B0F003D090EC28F0F4D7E7
:102B6800A9C094F0AAC095F0ABC096F0ACC097F09D
:102B7800ADC090F0AEC091F0AFC092F0B0C093F08D
:102B880029EC28F090C098F091C099F092C09AF082
:102B980093C09BF0000E00019C6F000E9D6F800E8D
:102BA8009E6F3E0E9F6FF6EC1DF00001D8A0D5D7A2
:102BB800AAEC2AF0000E0001C86F000EC96F000EC3
:102BC800CA6F000ECB6F000E406E000E416E000EF5
:102BD800426E000E436E1200000E0001C86F000E18
:102BE800C96F000ECA6F000ECB6F000E406E000E4C
:102BF800416E000E426E000E436EC8C0A9F0C9C0F7
:102C0800AAF0CAC0ABF0CBC0ACF0C8C0ADF0C9C028
:102C1800AEF0CAC0AFF0CBC0B0F003D042EC27F0A2
:102C2800F4D7A9C094F0AAC095F0ABC096F0ACC098
:102C380097F0ADC090F0AEC091F0AFC092F0B0C0C8
:102C480093F029EC28F090C098F091C099F092C0C8
:102C58009AF093C09BF0CD0E00019C6FCC0E9D6F37
:102C68004C0E9E6F3D0E9F6FF6EC1DF00001D8A034
:102C7800D5D7AAEC2AF0D1EC05F0000E0001C86FF8
:102C8800000EC96F000ECA6F000ECB6F000E406EAB
:102C9800000E416E000E426E000E436EC8C0A9F0D1
:102CA800C9C0AAF0CAC0ABF0CBC0ACF0C8C0ADF088
:102CB800C9C0AEF0CAC0AFF0CBC0B0F003D090EC42
:102CC80028F0F4D7A9C094F0AAC095F0ABC096F04C
:102CD800ACC097F0ADC090F0AEC091F0AFC092F02C
:102CE800B0C093F029EC28F090C098F091C099F00A
:102CF80092C09AF093C09BF0CD0E00019C6FCC0E51
:102D08009D6FCC0E9E6F3E0E9F6FF6EC1DF000017E
:102D1800D8A0D5D7AAEC2AF00001E651D8B4D1EC56
:102D280005F0000E0001C86F000EC96F000ECA6FD3
:102D3800000ECB6F000E406E000E416E000E426E0C
:102D4800000E436EC8C0A9F0C9C0AAF0CAC0ABF053
:102D5800CBC0ACF0C8C0ADF0C9C0AEF0CAC0AFF0CF
:102D6800CBC0B0F003D042EC27F0F4D7A9C094F060
:102D7800AAC095F0ABC096F0ACC097F0ADC090F08B
:102D8800AEC091F0AFC092F0B0C093F029EC28F03B
:102D980090C098F091C099F092C09AF093C09BF0BF
:102DA800330E00019C6F330E9D6FB30E9E6F3E0E67
:102DB8009F6FF6EC1DF00001D8A0D5D7AAEC2AF039
:102DC800000E0001C86F000EC96F000ECA6F000E1A
:102DD800CB6F000E406E000E416E000E426E000E6C
:102DE800436E12006DEC29F0000E0001A66F000E74
:102DF800A56FECD0E3C0AAFFE4C0A9FFA6BF06D028
:102E0800A6510CE1020EA55DD8B008D0A551560810
:102E1800D96EA651D8A0E82A0008B6D0A6BF06D019
:102E2800A6510CE1050EA55DD8B008D0A551FB0848
:102E3800D96EA651D8A0E82A0008A6D0050EA51973
:102E4800A611D8A403D0D6C0A8FFA1D0060EA519F4
:102E5800A611D8A403D048C0A8FF99D0A6BF06D011
:102E6800A6512DE11F0EA55DD8B029D0A5A127D068
:102E7800000E836F020E826FF90EA525806FFF0E7C
:102E8800A621816F8DEC22F0D89000018037813720
:102E9800480E8025D96E010E8121DA6EDECFA3F0AF
:102EA800DDCFA4F0A3C080F0A4C081F0010E836F31
:102EB800000E826F8DEC22F00001805167D0A6BF12
:102EC80006D0A6511BE11F0EA55DD8B017D0A5B13D
:102ED80015D0F80EA525806FFF0EA621816F000E74
:102EE800836F020E826F8DEC22F0D890000180373C
:102EF8008137480E8025D96E010E45D01F0EA519C1
:102F0800A611D8A403D046C0A8FF41D0A6BF06D0BA
:102F1800A6511BE1380EA55DD8B017D0A5B115D0C4
:102F2800000E836F020E826FE00EA525806FFF0EE4
:102F3800A621816F8DEC22F0D8900001803781376F
:102F4800300E8025D96E010EA7D7A6BF06D0A65190
:102F58001EE1380EA55DD8B01AD0A5A118D0DF0E95
:102F6800A525806FFF0EA621816F000E836F020ECC
:102F7800826F8DEC22F0D890000180378137300EB7
:102F88008025D96E010E8121DA6EDF50A86EA69ECB
:102F9800A69CA684F29E550EA76EAA0EA76EA682C0
:102FA800A6B2FED7F28EA6940001E42BE451D8B461
:102FB800E32B030EE319D8A407D0EC0E8E6FFE0E98
:102FC8008F6F81EC10F00AD0A54BA62BA6BF12D7A5
:102FD800A65104E1380EA55DD8A00CD791EC27F0D6
:102FE8001200100E0001AD6F000EB16F000EB06F31
:102FF800000EAC6F100EAB6F010E9AEC2AF0110E9A
:103008000001A76F3A0EE82EFED7A72FFCD700F0D5
:10301800770E00018E6FFE0E8F6F81EC10F0C00EE0
:103028009AEC2AF06A0E00018E6FFD0E8F6F81EC0C
:1030380010F0900E9AEC2AF0030E0001A86F8A0E89
:10304800A76F550EE82EFED7A72FFCD7A82FFAD7C3
:1030580000D0000E0001AF6F010EAE6FA1D0D89066
:10306800AE35D96EAF35DA6EA351D926A451DA221E
:10307800DECF80F0DDCF81F058EC25F080C0A9F0DC
:1030880081C0AAF00001A951B025A76FAA51B121AA
:10309800A86F010EA725B06F000EA821B16FB1511E
:1030A80028E1110EB05DD8B024D0DE0E8E6FFE0E72
:1030B8008F6F81EC10F0740E00018E6FFE0E8F6F13
:1030C800D890AE35D96EAF35DA6EA351D926A45152
:1030D800DA22DECF90F0DDCF91F081EC10F0000124
:1030E800B0511008AB6FB151D8A0E82A0008AC6FF6
:1030F80055D0B15104E1110EB05DD8A04FD0AD51FB
:103108001AEC26F00001AD6FAD51D8A419D0270EE6
:103118000001A86F0D0EA76F260EE82EFED7A72F69
:10312800FCD7A82FFAD700F0010E9AEC2AF0110E5E
:103138000001A76F3A0EE82EFED7A72FFCD700F0A4
:103148000001AD5180099AEC2AF0DE0E00018E6F65
:10315800FE0E8F6F81EC10F0740E00018E6FFE0E64
:103168008F6FD890AE35D96EAF35DA6EA351D926A8
:10317800A451DA22DECF90F0DDCF91F081EC10F08F
:103188000001AB51B025A76FAC51B121A86FF00E6B
:10319800A725B06FFF0EA821B16FA1D7AE4BAF2BFB
:1031A800010EA525A76F000EA621A86FA751AE5D39
:1031B800A851AF59D8A053D7270E0001A86F0D0EFC
:1031C800A76F260EE82EFED7A72FFCD7A82FFAD771
:1031D80000F0120076EC21F00001DC51E025AE6F22
:1031E800DD51E121AF6F020EAE19AF11D8A426D080
:1031F80010EC1CF0A4C092F1A5C093F1010192510A
:103208009311D8B417D0000E0001916F020E906F81
:1032180094EC23F0000E346E000E356E000E366E00
:10322800000E376EC4C038F0C5C039F0C6C03AF0D9
:10323800C7C03BF0630ED2EC12F07CD0E005E11180
:10324800D8A426D010EC1CF0A4C094F1A5C095F128
:10325800010194519511D8B417D0000E0001916F57
:10326800010E906F94EC23F0000E346E000E356E54
:10327800000E366E000E376EC4C038F0C5C039F087
:10328800C6C03AF0C7C03BF0630ED2EC12F052D081
:10329800DC05DD11D8A426D010EC1CF0A4C096F1F2
:1032A800A5C097F1010196519711D8B417D0000E17
:1032B8000001916F030E906F94EC23F0000E346EB2
:1032C800000E356E000E366E000E376EC4C038F034
:1032D800C5C039F0C6C03AF0C7C03BF0630ED2ECA7
:1032E80012F028D063EC1BF0A4C098F1A5C099F1A6
:1032F800010198059911D8A417D0000E0001916F0B
:10330800040E906F94EC23F0000E346E000E356EB0
:10331800800E366E3F0E376EC4C038F0C5C039F027
:10332800C6C03AF0C7C03BF0680ED2EC12F002D02B
:10333800FEEC29F080A204D00001AE6BAE2B02D0C7
:103348000001AE6BAE5181A603D0AF6BAF2B02D09C
:103358000001AF6BAFC0B0F0B16BB027000EB12366
:1033680081A403D0B26BB22B02D00001B26BB25170
:10337800B027000EB123B1BF05D0B151D9E1B005D6
:10338800D8B0D6D7AAEC2AF0120028EC21F0F2C067
:1033980001F0026A0E0E046E100E036E80EC29F026
:1033A8000001F1513C0DF3CF1FF0F4CF20F0015094
:1033B8001F2602502022F0511F26000E20221FC077
:1033C800C0F020C0C1F0000EC1BFFF0EC26FC36FB6
:1033D800F2C056F0F1C055F0000EB86F000EB96F8C
:1033E800000EBA6F000EBB6F000E3C6E000E3D6EF5
:1033F800000E3E6E000E3F6E000EC46F000EC56FCD
:10340800000EC66F000EC76F000EC86F000EC96FA2
:10341800000ECA6F000ECB6F000E406E000E416E9C
:10342800000E426E000E436E000ED76F000ED66F70
:10343800000E496E000E486E000E476E000E466E76
:10344800000EDB6F000EDA6F000EE66F000ED96F0C
:10345800000ED86F000E4B6E000E4A6E000ED16F34
:10346800000ED06F000ED36F000ED26F000EE76F04
:10347800000E346E000E356E000E366E000E376E7E
:10348800000E386E000E396E000E3A6E000E3B6E5E
:10349800000E226E000E216ED8902134D96E22348F
:1034A800DA6E480ED926010EDA22000EDE6E000E04
:1034B800DD6ED8902134D96E2234DA6E300ED926DA
:1034C800010EDA22000EDE6E000EDD6ED890213479
:1034D800D96E2234DA6E600ED926010EDA22000E79
:1034E800DE6E000EDD6E000E1F6E010E206ED8908F
:1034F8002134D96E2234DA6ED890D936DA361F5094
:10350800D9262050DA22000EDE6E000EDE6E000E86
:10351800DE6E000EDD6E214A222A225004E10C0ED6
:10352800215CD8A0B9D7F288F18CF28EDBEC29F0B7
:103538005BEC1DF0000E0001FE6F1200000E000192
:10354800A56F000EA76F000EA66FAED0F20E8E6F9D
:10355800FF0E8F6F010EA625906F000EA721916FA9
:1035680081EC10F00001A651445C380DF3CFE2F075
:103578006DEC29F00DEC2AF0D8900001A635D96E33
:10358800A735DA6EE80ED926000EDA22E3C080F0FD
:10359800E4512BEC2AF0DF6E0001E42BE451D8B49F
:1035A800E32BD890A635D96EA735DA6EE90ED92661
:1035B800000EDA22E3C080F0E4512BEC2AF0DF6E33
:1035C800D8900001A635D96EA735DA6EE80ED9264F
:1035D800000EDA220B0EDF6438D0D890A635D96EEB
:1035E800A735DA6EE80ED926000EDA22D890A6356D
:1035F800E16EA735E26EE80EE126000EE222E75002
:10360800F40FDF6E030E8E6FFF0E8F6FD890A63506
:10361800D96EA735DA6EE80ED926000EDA22DF5009
:10362800A36FA351906F916BD890A635D96EA7352B
:10363800DA6EE90ED926000EDA22DF50A46FA45103
:10364800926F936B81EC10F022D0F80E8E6FFE0E05
:103658008F6FD890A635D96EA735DA6EE80ED926C1
:10366800000EDA22DF50A36FA351906F916BD890B0
:10367800A635D96EA735DA6EE90ED926000EDA22FC
:10368800DF50A46FA451926F936B81EC10F000018E
:10369800A5511AEC26F00001A56FA55180099AECF6
:1036A8002AF00001A64BA72B4450A65DA751800A1B
:1036B800A36F4550800AA359D8B0120047D700011C
:1036C800E751D8A407D0010EE76F000EA56F010ED1
:1036D800A46F120034C0A6F035C0A7F036C0A8F019
:1036E80037C0A9F038C0AAF039C0ABF03AC0ACF086
:1036F8003BC0ADF0AAC084F0ABC085F0ACC086F08A
:10370800ADC087F0A6C080F0A7C081F0A8C082F045
:10371800A9C083F0EBEC0AF080C090F081C091F072
:1037280082C092F083C093F0000E0001946F000EE7
:10373800956F000E966F000E976F04EC22F0000153
:10374800D8B0C1D734C090F035C091F036C092F0EF
:1037580037C093F0000E946F000E956F800E966F31
:103768003F0E976F04EC22F00001D8A02FD0AAC01A
:1037780094F0ABC095F0ACC096F0ADC097F0C4C063
:1037880090F0C5C091F0C6C092F0C7C093F029EC84
:1037980028F090C098F091C099F092C09AF093C028
:1037A8009BF0CD0E00019C6FCC0E9D6F0C0E9E6F92
:1037B8003F0E9F6FF6EC1DF00001D8B084D7000EC5
:1037C800E76F000EA56F000EA46F1200AAC094F058
:1037D800ABC095F0ACC096F0ADC097F0C4C090F007
:1037E800C5C091F0C6C092F0C7C093F029EC28F08C
:1037F80090C098F091C099F092C09AF093C09BF055
:10380800000E00019C6F000E9D6F400E9E6F3F0ED4
:103818009F6FF6EC1DF0D0D70001E751D8A407D070
:10382800010EE76F000EA56F010EA46F120034C0E1
:10383800A6F035C0A7F036C0A8F037C0A9F038C048
:10384800AAF039C0ABF03AC0ACF03BC0ADF0AAC0AA
:1038580084F0ABC085F0ACC086F0ADC087F0A6C0E0
:1038680080F0A7C081F0A8C082F0A9C083F0EBEC7B
:103878000AF080C090F081C091F082C092F083C0BD
:1038880093F0000E0001946F000E956F000E966F76
:10389800000E976F04EC22F00001D8B0C1D734C0F5
:1038A80090F035C091F036C092F037C093F0000E1A
:1038B800946F000E956F800E966F3F0E976F04EC15
:1038C80022F00001D8A02FD0AAC094F0ABC095F088
:1038D800ACC096F0ADC097F0C4C090F0C5C091F0F0
:1038E800C6C092F0C7C093F029EC28F090C098F0B9
:1038F80091C099F092C09AF093C09BF0000E00011D
:103908009C6F000E9D6F400E9E6F3F0E9F6FF6ECF2
:103918001DF00001D8B084D7000EE76F000EA56F28
:10392800000EA46F1200AAC094F0ABC095F0ACC012
:1039380096F0ADC097F0C4C090F0C5C091F0C6C075
:1039480092F0C7C093F029EC28F090C098F091C08D
:1039580099F092C09AF093C09BF0EC0E00019C6F16
:10396800510E9D6FB80E9E6F3E0E9F6FF6EC1DF0C8
:10397800D0D737EC20F0F2C088F00001896B0E0E2A
:103988008B6F100E8A6F59EC29F00001F1513C0D34
:10399800F3CF98F0F4CF99F088519827895199235B
:1039A800F0519827000E992398C0BCF099C0BDF03B
:1039B800000EBDBFFF0EBE6FBF6FC051BC5DB86FBC
:1039C800C151BD59B96FC251BE59BA6FC351BF5920
:1039D800BB6FB8C08AF0B9C08BF0BAC08CF0BBC05E
:1039E8008DF0100E8E6F0E0E8F6F000E906F000E02
:1039F800916F5FEC1EF000018A51F96F100E846F11
:103A08000E0E856F000E866F000E876FB8C080F0AF
:103A1800B9C081F0BAC082F0BBC083F08AEC1FF055
:103A280080C08AF081C08BF082C08CF083C08DF09A
:103A38003C0E00018E6F000E8F6F000E906F000E0F
:103A4800916F5FEC1EF000018A51F86F100E846FC1
:103A58000E0E856F000E866F000E876FB8C080F05F
:103A6800B9C081F0BAC082F0BBC083F08AEC1FF005
:103A780080C09AF081C09BF082C09CF083C09DF00A
:103A88009AC080F09BC081F09CC082F09DC083F0FA
:103A98003C0E0001846F000E856F000E866F000ECD
:103AA800876F8AEC1FF000018051F76F120028EC35
:103AB80021F0F2C001F0026A0E0E046E100E036EC1
:103AC80080EC29F00001F1513C0DF3CF19F0F4CF4F
:103AD8001AF00150192602501A22F0511926000E28
:103AE8001A2219C0BCF01AC0BDF0000EBDBFFF0EEF
:103AF800BE6FBF6FC051BC5DB86FC151BD59B96FC2
:103B0800C251BE59BA6FC351BF59BB6FB8C00BF091
:103B1800B9C00CF0BAC00DF0BBC00EF0100E0F6E9D
:103B28000E0E106E000E116E000E126EC6EC1EF018
:103B38000B500001F96F100E056E0E0E066E000E8A
:103B4800076E000E086EB8C001F0B9C002F0BAC026
:103B580003F0BBC004F0E1EC1FF001C00BF002C0A1
:103B68000CF003C00DF004C00EF03C0E0F6E000EFA
:103B7800106E000E116E000E126EC6EC1EF00B5089
:103B88000001F86F100E056E0E0E066E000E076E21
:103B9800000E086EB8C001F0B9C002F0BAC003F058
:103BA800BBC004F0E1EC1FF001C01BF002C01CF028
:103BB80003C01DF004C01EF01BC001F01CC002F0C1
:103BC8001DC003F01EC004F03C0E056E000E066E0C
:103BD800000E076E000E086EE1EC1FF001500001A8
:103BE800F76F1200000E00019815A06F000E9915CE
:103BF800A16F800E9A15A26F7F0E9B15A36FA0511F
:103C0800A111A211A311D8A408D0000E986F000E1C
:103C1800996F000E9A6F000E9B6F000E9C15A06F97
:103C2800000E9D15A16F800E9E15A26F7F0E9F1529
:103C3800A36FA051A111A211A311D8A408D0000EFE
:103C48009C6F000E9D6F000E9E6F000E9F6F9BAFC6
:103C580009D0986D991FD8B0992B9A1FD8B09A2B74
:103C6800800E9B579FAF09D09C6D9D1FD8B09D2B90
:103C78009E1FD8B09E2B800E9F57000E981B000EDB
:103C8800991B000E9A1B800E9B1B000E9C1B000E9E
:103C98009D1B000E9E1B800E9F1B9C51985D9D5185
:103CA80099599E519A599F519B59D8B002D0D89092
:103CB8001200D8801200000E0001936F91AF0AD055
:103CC800911F901F8F1F8E6D000E8F2390239123BD
:103CD800010E936F8DAF0AD08D1F8C1F8B1F8A6DBD
:103CE800000E8B238C238D23010E931B000E946FE3
:103CF800000E956F000E966F000E976F8E518F1104
:103D080090119111D8B42AD0010E926F06D0D89094
:103D18008E378F3790379137922B91AFF8D7D8904D
:103D280094379537963797378E518A5D8F518B59CF
:103D380090518C5991518D59D8A009D08E518A5FD4
:103D48008F518B5B90518C5B91518D5B9481D89096
:103D5800913390338F338E33922FE1D79351D8B468
:103D680008D0971F961F951F946D000E95239623D4
:103D7800972394C08AF095C08BF096C08CF097C0BA
:103D88008DF01200000E146E12AE0AD0121E111E13
:103D9800101E0F6C000E102211221222010E146E3A
:103DA8000EAE0AD00E1E0D1E0C1E0B6C000E0C2241
:103DB8000D220E22010E141A000E156E000E166E3C
:103DC800000E176E000E186E0F5010101110121002
:103DD800D8B42AD0010E136E06D0D8900F361036FC
:103DE80011361236132A12AEF8D7D8901536163671
:103DF800173618360F500B5C10500C5811500D58D0
:103E080012500E58D8A009D00F500B5E10500C5A03
:103E180011500D5A12500E5A1580D8901232113284
:103E280010320F32132EE1D71450D8B408D0181E10
:103E3800171E161E156C000E16221722182215C002
:103E48000BF016C00CF017C00DF018C00EF01200E1
:103E580000019B359C35A26FA251D8A409D0000E51
:103E6800996F000E9A6F000E9B6F000E9C6F1200E8
:103E780099C09DF09AC09EF09BC09FF09CC0A0F096
:103E8800200E05D0D890A0339F339E339D33E82E63
:103E9800F9D79D51A16F9B8FFF0E9917FF0E9A17A7
:103EA800FF0E9B17000E9C17960EA25FA2AF0DD0B7
:103EB800A251800A970FD8A0D2D7D8909C339B33B1
:103EC8009A339933A23FF9D70DD01F0EA26507D0B8
:103ED800C6D7D89099379A379B379C37A207A251F3
:103EE800D8A4F7D7A151D8B408D09C1F9B1F9A1FFC
:103EF800996D000E9A239B239C2399C099F09AC030
:103F08009AF09BC09BF09CC09CF01200000E000130
:103F1800896F83AF0AD0831F821F811F806D000EB7
:103F2800812382238323010E896F87AF08D0871FDF
:103F3800861F851F846D000E852386238723845161
:103F4800851186118711D8B424D0010E886F06D048
:103F5800D8908437853786378737882B87AFF8D747
:103F68008451805D85518159865182598751835981
:103F7800D8A008D08451805F8551815B8651825BCF
:103F88008751835BD8908733863385338433882F72
:103F9800E7D78951D8B408D0831F821F811F806D4D
:103FA800000E81238223832380C080F081C081F0AA
:103FB80082C082F083C083F01200000E0A6E04AE45
:103FC8000AD0041E031E021E016C000E02220322E8
:103FD8000422010E0A6E08AE08D0081E071E061E2F
:103FE800056C000E0622072208220550061007104D
:103FF8000810D8B424D0010E096E06D0D890053622
:10400800063607360836092A08AEF8D70550015C87
:10401800065002580750035808500458D8A008D032
:104028000550015E0650025A0750035A0850045AB8
:10403800D8900832073206320532092EE7D70A50DF
:10404800D8B408D0041E031E021E016C000E022202
:104058000322042201C001F002C002F003C003F0F1
:1040680004C004F01200A00E00018D6F860E8E6F42
:10407800010E8F6F000E906FBBEC25F0D1EC2AF08B
:10408800000E0001826FD00E816FC3EC2AF0000E83
:104098000001826F000E816FC3EC2AF0CDEC2AF08C
:1040A800D1EC2AF0000E0001826FD10E816FC3ECB3
:1040B8002AF0000E0001966F000E1BEC29F000019B
:1040C800976FF00E9625D96EDA6A000EDA2297C03D
:1040D80095F00F0E951797390F0B0A0DF35095258C
:1040E800DF6E962B050E9665E7D7010E1BEC29F0BF
:1040F8000001976F97C095F00F0E951797390F0B22
:104108000A0DF3509525F66FCDEC2AF01200BF0E7C
:1041180000018E6FFD0E8F6F81EC10F0C00E9AECCF
:104128002AF0560E00018E6FFF0E8F6FA3C0D9FFC5
:10413800A4C0DAFFDECF90F0DDCF91F081EC10F073
:10414800900E9AEC2AF0C60E00018E6FFF0E8F6F4C
:1041580020EE02F0A351D926A451DA22DECF90F046
:10416800DDCF91F081EC10F0D00E9AEC2AF0BD0E64
:1041780000018E6FFF0E8F6F20EE04F0A351D92639
:10418800A451DA22DECF90F0DDCF91F081EC10F06F
:104198001A0E0001A66F5E0EA56F6E0EE82EFED7F2
:1041A800A52FFCD7A62FFAD700F012000001CDBF2B
:1041B80006D0CD5143E1020ECC5DD8B03FD0D890A7
:1041C800D835D96ED935DA6E600ED926010EDA22C5
:1041D800DE04DE10D8A403D0F0EC15F031D0D8906E
:1041E800D835D96ED935DA6E600ED926010EDA22A5
:1041F800020EDE18DE10D8A403D0EAEC14F020D0AA
:10420800D890D835D96ED935DA6E600ED926010E18
:10421800DA22030EDE18DE10D8A403D0E4EC13F083
:104228000FD0D890D835D96ED935DA6E600ED92628
:10423800010EDA22040EDE18DE10D8B4D1EC05F037
:104248000001D84BD92B1200A00E0E6E860E0F6EF1
:10425800010E106E000E116E48EC26F0D9EC2AF013
:10426800000E036ED00E026EC8EC2AF0000E036E2C
:10427800000E026EC8EC2AF0D5EC2AF0D9EC2AF030
:10428800000E036ED10E026EC8EC2AF0000E176EF7
:10429800000EC9EC29F0186EF00E1724D96EDA6AF0
:1042A800000EDA2218C016F00F0E161618380F0B6B
:1042B8000A0DF3501624DF6E172A050E1764E8D787
:1042C800010EC9EC29F0186E18C016F00F0E16165C
:1042D80018380F0B0A0DF35016240001F66FD5ECB1
:1042E8002AF012003CC080F03DC081F03EC082F050
:1042F8003FC083F040C084F041C085F042C086F0E2
:1043080043C087F0EBEC0AF080C03CF081C03DF080
:1043180082C03EF083C03FF03CC080F03DC081F0D9
:104328003EC082F03FC083F0000E0001846F000E93
:10433800856FA70E866F430E876FF8EC0DF080C06F
:10434800C4F081C0C5F082C0C6F083C0C7F0000EBB
:104358000001C86F000EC96F000ECA6F000ECB6F48
:10436800000E406E000E416E000E426E000E436E4F
:1043780012006DEC29F0E3C0AAFFE4C0A9FF000E0B
:10438800A86EA69EA69CA684F29E550EA76EAA0E9F
:10439800A76EA682A6B2FED7F28EA6940001E40507
:1043A800E46FE429D8A402D0E305E36FE329D8A495
:1043B800E2D7000EAA6E000EA96E000EA86EA69E89
:1043C800A69CA684F29E550EA76EAA0EA76EA6827C
:1043D800A6B2FED7F28EA694000EAA6E010EA96EA2
:1043E800020EA86EA69EA69CA684F29E550EA76EE7
:1043F800AA0EA76EA682A6B2FED7F28EA6941200C7
:10440800000E00019015986F000E9115996F800E9F
:1044180092159A6F7F0E93159B6F985199119A1167
:104428009B11D8A408D0000E906F000E916F000E5B
:10443800926F000E936F000E9415986F000E9515ED
:10444800996F800E96159A6F7F0E97159B6F9851EE
:1044580099119A119B11D8A408D0000E946F000EE0
:10446800956F000E966F000E976F945190190AE1A0
:104478009551911907E19651921904E197519319B1
:10448800D8B402D0D8901200D88012000001D451BC
:10449800D511D8A403D0CCEC28F029D0D405D51157
:1044A800D8A403D0B0EC28F022D0020ED419D5112C
:1044B800D8A403D012EC23F01AD0030ED419D511C6
:1044C800D8A403D0F0EC24F012D0040ED419D511DE
:1044D800D8A407D044504510D8B4ECD7A2EC1AF0B1
:1044E80006D0050ED419D511D8B493EC29F0010ED5
:1044F8000001D425806F000ED521816F000E836FD7
:10450800060E826F7FEC24F080C0D4F081C0D5F015
:104518001200000E0001856F83AF06D0826D831FE5
:10452800D8B0832B010E856F81AF06D0806D811FB7
:10453800D8B0812B010E851B000E876F000E866F89
:1045480082518311D8B41CD0010E846F04D0D89046
:1045580082378337842B83AFFAD7D890863787374B
:104568008251805D83518159D8A005D08251805FE6
:104578008351815B8681D89083338233842FEDD732
:104588008551D8B404D0866D871FD8B0872B86C0D4
:1045980080F087C081F01200000E0001886F000EC5
:1045A800896F000E8A6F000E8B6F845185118611FA
:1045B8008711D8B42AD0010E8C6F06D0D8908437D2
:1045C8008537863787378C2B87AFF8D7D8908837C9
:1045D80089378A378B378451805D85518159865157
:1045E800825987518359D8A009D08451805F855159
:1045F800815B8651825B8751835B8881D890873342
:104608008633853384338C2FE1D788C080F089C006
:1046180081F08AC082F08BC083F0120037EC20F062
:10462800F70E00018E6FFF0E8F6F81EC10F0C00E39
:104638009AEC2AF0FC0E00018E6FFF0E8F6F81EC52
:1046480010F00F0E00018E6FFE0E8F6FF6C090F007
:10465800916BF5C092F0936BF4C094F0956B81EC7C
:1046680010F0900E9AEC2AF0550E00018E6FFE0E97
:104678008F6F81EC10F0D00E9AEC2AF01E0E00011C
:104688008E6FFE0E8F6FF2C090F0916BF1C092F0BA
:10469800936BF0C094F0956B81EC10F01200000E53
:1046A800096E000E0A6E000E0B6E000E0C6E0550A1
:1046B800061007100810D8B42AD0010E0D6E06D0C7
:1046C800D89005360636073608360D2A08AEF8D7CC
:1046D800D89009360A360B360C360550015C065060
:1046E80002580750035808500458D8A009D005505C
:1046F800015E0650025A0750035A0850045A0980AE
:10470800D89008320732063205320D2EE1D709C09B
:1047180001F00AC002F00BC003F00CC004F0120054
:10472800D8904A34D96E4B34DA6E600ED926010E11
:10473800DA2290C0DEFF91C0DDFFC4C080F0C5C0A2
:1047480081F0C6C082F0C7C083F09A0E0001846F62
:10475800990E856FB90E866F3F0E876FEBEC0AF0E6
:10476800000E0001926F010E936FD8904A34D96EF3
:104778004B34DA6ED890D936DA369251D92693511D
:10478800DA2280C0DEFF81C0DEFF82C0DEFF83C088
:10479800DEFF4A4A4B2A1200EF0E00018E6FFD0E13
:1047A8008F6F81EC10F0C00E9AEC2AF0240E0001F5
:1047B8008E6FFF0E8F6F81EC10F0900E9AEC2AF03E
:1047C800740E00018E6FFE0E8F6FB2C0D9FFB3C09A
:1047D800DAFFDECF90F0DDCF91F081EC10F01A0E09
:1047E8000001B76F5E0EB66F6E0EE82EFED7B62FBD
:1047F800FCD7B72FFAD700F0B2C0A3F0B3C0A4F02B
:10480800B4C0A5F0B5C0A6F0F5EC17F012008C0EF8
:1048180000018E6FFD0E8F6F81EC10F0C00E9AECC8
:104828002AF0240E00018E6FFF0E8F6F81EC10F0BE
:10483800900E9AEC2AF0740E00018E6FFE0E8F6FA8
:10484800B2C0D9FFB3C0DAFFDECF90F0DDCF91F070
:1048580081EC10F01A0E0001B76F5E0EB66F6E0E87
:10486800E82EFED7B62FFCD7B72FFAD700F0B2C084
:10487800A3F0B3C0A4F0B4C0A5F0B5C0A6F0F5ECA1
:1048880017F01200A40EF66E540EF76E000EF86EB6
:1048980000EEE8F010EE17F00900F5CFEEFFE55056
:1048A800E150FAE17A0EF66E550EF76E000EF86ECC
:1048B80000EE4CF010EE0BF00900F5CFEEFFE550DE
:1048C800E150FAE101EE00F0920EEE6AE806FDE131
:1048D80000EEB8F0300EEE6AE806FDE100EE34F0C6
:1048E800180EEE6AE806FDE157905792000EF86E32
:1048F800000109EF00F0000E0001856F81AF06D0BE
:10490800806D811FD8B0812B010E856F83AF04D0D5
:10491800826D831FD8B0832B82518311D8B418D0ED
:10492800010E846F04D0D89082378337842B83AFED
:10493800FAD78251805D83518159D8A004D0825121
:10494800805F8351815BD89083338233842FF1D782
:104958008551D8B404D0806D811FD8B0812B80C018
:1049680080F081C081F01200310E0001846FB20E18
:10497800E82EFED7842FFCD700F08C94030E39EC78
:104988002AF0110E0001846F3A0EE82EFED7842F0C
:10499800FCD700F0030E39EC2AF07D0EE82EFED786
:1049A800320E46EC2AF0280E46EC2AF0080E46ECA9
:1049B8002AF0010E46EC2AF0110E0001846F3A0E1F
:1049C800E82EFED7842FFCD700F0060E46EC2AF01E
:1049D8000F0E9AEC2AF012007B0E00018E6FFD0E6E
:1049E8008F6F81EC10F0C00E9AEC2AF0EBEC25F0FA
:1049F80088C044F089C045F044504510D8A408D078
:104A0800190E00018E6FFF0E8F6F81EC10F01200EF
:104A180044044510D8A408D07E0E00018E6FFF0E06
:104A28008F6F81EC10F01200690E00018E6FFE0E80
:104A38008F6F44C090F045C091F081EC10F01200E7
:104A480000018451851186118711D8B424D0010E34
:104A5800886F06D0D8908437853786378737882B74
:104A680087AFF8D78451805D855181598651825925
:104A780087518359D8A008D08451805F8551815BC4
:104A88008651825B8751835BD89087338633853321
:104A98008433882FE7D780C080F081C081F082C03E
:104AA80082F083C083F012000001815109E10A0EEF
:104AB800805DD8B005D0000E816F010E806F1200A6
:104AC800815109E1640E805DD8B005D0000E816F78
:104AD800020E806F1200E80E805D030E8159D8B077
:104AE80005D0000E816F030E806F1200100E805DDE
:104AF800270E8159D8B005D0000E816F040E806F43
:104B08001200000E816F000E806F1200FF0E000170
:104B18008E6FFD0E8F6F81EC10F0C00E9AEC2AF0AC
:104B28002E0E00018E6FFF0E8F6F81EC10F0900E2D
:104B38009AEC2AF0740E00018E6FFE0E8F6FA3C0E0
:104B4800D9FFA4C0DAFFDECF90F0DDCF91F081EC81
:104B580010F01A0E0001A66F5E0EA56F6E0EE82EFD
:104B6800FED7A52FFCD7A62FFAD700F01200C69AB9
:104B780094869488800E0001806F960E816F980E3F
:104B8800826F000E836F8DC091F08EC092F08FC03F
:104B980093F090C094F0020ED890913792379337E3
:104BA8009437E82EF9D791C084F092C085F093C06D
:104BB80086F094C087F0D0EC22F000018005C86E22
:104BC800800EC76E280EC66E000EC56E12006DEC04
:104BD80029F00001E451E3C08AF08B6B8AC08BF0A6
:104BE8008A6B8A27000E8B23FE0E8A25806FFF0EA4
:104BF8008B21816F000E836F380E826F8DEC22F04F
:104C080080C08CF081C08DF000018DBF0AD08D511D
:104C180004E1050E8C5DD8A004D0000E8D6F040E43
:104C28008C6F8CC088F08DC089F012000001806FF5
:104C380000018051D8A407D03A0EF66EFD0EF76E2B
:104C48000800F5501200400E8019D8A407D0390E7C
:104C5800F66EFD0EF76E0800F5501200100E801962
:104C6800D8A407D0380EF66EFD0EF76E0800F55082
:104C78001200500E8019D8A412003B0EF66EFD0EDD
:104C8800F76E0800F5501200C69A94869488800E34
:104C9800016E960E026E980E036E000E046E0EC024
:104CA80012F00FC013F010C014F011C015F0020E6E
:104CB800D8901236133614361536E82EF9D712C0A6
:104CC80005F013C006F014C007F015C008F053EC47
:104CD80023F00104C86E800EC76E280EC66E000E43
:104CE800C56E1200000E0001866F000E856F82519E
:104CF8008311D8B41CD0010E846F04D0D8908237A9
:104D08008337842B83AFFAD7D8908537863782517B
:104D1800805D83518159D8A005D08251805F83512D
:104D2800815B8581D89083338233842FEDD785C00A
:104D380080F086C081F012000001D251D311D8A4AE
:104D480003D0A5EC29F015D0D205D311D8A403D0EF
:104D5800E8EC28F00ED0020ED219D311D8A403D053
:104D6800DEEC27F006D0030ED219D311D8B4B8EC74
:104D780027F0010E0001D225A36F000ED321A46FE6
:104D8800030EA315D26FD36B1200000E066E000E31
:104D9800056E03500410D8B41CD0010E076E04D061
:104DA800D89003360436072A04AEFAD7D8900536C9
:104DB80006360350015C04500258D8A005D00350B1
:104DC800015E0450025A0580D89004320332072E3F
:104DD800EDD705C001F006C002F012008B9A8B9245
:104DE8008B9E8B848B8C8B80110E0001806F3A0E0A
:104DF800E82EFED7802FFCD700F08B948B8C8B800D
:104E08000D0E0001806FFB0EE82EFED7802FFCD719
:104E180000D08B948B9C8B90050E0001806FDD0E6B
:104E2800E82EFED7802FFCD700D012008B9A8B92E9
:104E38008B9E8B848B8C8B801A0E0001806FF80EF2
:104E4800E82EFED7802FFCD700F08B848B9C8B90AC
:104E5800040E0001806F3D0EE82EFED7802FFCD790
:104E680000D08B948B9C8B90050E0001806FDD0E1B
:104E7800E82EFED7802FFCD700D012008B908B9A9B
:104E88008B948B8C8B828B8E110E0001806F3A0E67
:104E9800E82EFED7802FFCD700F08B9C8B92040E57
:104EA8000001806FE40EE82EFED7802FFCD700F0BB
:104EB8008B82FA0E00D0E82EFDD78B9C8B928B8EBE
:104EC800FA0E00D000D0E82EFCD712008B9A8B92F5
:104ED8008B9E8B848B8C8B80170E0001806FB90E94
:104EE800E82EFED7802FFCD78B948B8C8B80040EFA
:104EF8000001806F3D0EE82EFED7802FFCD700D032
:104F08008B948B9C8B90090E0001806F1C0EE82EF1
:104F1800FED7802FFCD700F01200000EAA6E000EFC
:104F2800A96EE3C0A8FFA69EA69CA684F29E550E75
:104F3800A76EAA0EA76EA682A6B2FED7F28EA69478
:104F4800000EAA6E010EA96EE4C0A8FFA69EA69C3C
:104F5800A684F29E550EA76EAA0EA76EA682A6B2CA
:104F6800FED7F28EA6941200AB0E00018E6FFF0ED4
:104F78008F6F81EC10F0C00E9AEC2AF0D40E00016D
:104F88008E6FFE0E8F6F81EC10F0900E9AEC2AF067
:104F9800930E00018E6FFE0E8F6F81EC10F0D00E15
:104FA8009AEC2AF0DF0E00018E6FFD0E8F6F81ECF8
:104FB80010F01200A20E00018E6FFF0E8F6F81ECB1
:104FC80010F0C00E9AEC2AF0D40E00018E6FFE0E7F
:104FD8008F6F81EC10F0900E9AEC2AF0930E00017E
:104FE8008E6FFE0E8F6F81EC10F0D00E9AEC2AF0C7
:104FF8002D0E00018E6FFE0E8F6F81EC10F01200E7
:10500800000E956E9388938A938C938E93829486E0
:105018009488938093849386928292869298929AA7
:105028008998899A9680968294929494949A949C5A
:10503800949E9490000E8B6E000E8C6E0F0EC16EB7
:10504800F288F18CF086F28E1200000E0001941B9B
:10505800000E951B000E961B800E971B90C080F0CB
:1050680091C081F092C082F093C083F094C084F024
:1050780095C085F096C086F097C087F0EBEC0AF0F3
:1050880080C090F081C091F082C092F083C093F00C
:105098001200000189518A11D8B418D0010E8B6F03
:1050A80004D0D89089378A378B2B8AAFFAD78951A1
:1050B800875D8A518859D8A004D08951875F8A5161
:1050C800885BD8908A3389338B2FF1D787C087F0D4
:1050D80088C088F012000A500B10D8B418D0010EFE
:1050E8000C6E04D0D8900A360B360C2A0BAEFAD7C1
:1050F8000A50085C0B500958D8A004D00A50085E22
:105108000B50095AD8900B320A320C2EF1D708C02E
:1051180008F009C009F012008B9C8B928B9E8B8043
:105128008B8A8B840F0E0001806F9B0EE82EFED7B2
:10513800802FFCD78B9A040E0001806F3D0EE82E5D
:10514800FED7802FFCD700D08B808B94FA0E00D02E
:1051580000D0E82EFCD71200B40E00018E6FFF0EAF
:105168008F6F81EC10F0C00E9AEC2AF0E00E00016F
:105178008E6FFE0E8F6F81EC10F0900E9AEC2AF075
:10518800420E00018E6FFF0E8F6F81EC10F012003F
:10519800460E00018E6FFD0E8F6F81EC10F0C00E71
:1051A8009AEC2AF0A00E00018E6FFE0E8F6F81EC34
:1051B80010F0900E9AEC2AF04C0E00018E6FFF0E44
:1051C8008F6F81EC10F01200990E00018E6FFF0EA8
:1051D8008F6F81EC10F0C00E9AEC2AF0380E0001A7
:1051E8008E6FFF0E8F6F81EC10F0900E9AEC2AF004
:1051F8003C0E00018E6FFE0E8F6F81EC10F01200D6
:10520800000EF2BE010E0001806FF29E8C86140E15
:10521800E82EFED700D08C96530EE82EFED700F06D
:10522800000180B102D0F29E01D0F28E120000017E
:10523800816F74EC2AF0C58674EC2AF0C9CF82F02D
:1052480074EC2AF0000181B102D0C59A01D0C58A58
:10525800C588000182511200000EF2BE010E016ED7
:10526800F29E8C86140EE82EFED700D08C96530E34
:10527800E82EFED700F001B002D0F29E01D0F28EE7
:105288001200010E9AEC2AF0110E0001A36F3A0EDB
:10529800E82EFED7A32FFCD700F0CF0E00018E6FAB
:1052A800FF0E8F6F81EC10F01200000188518A0305
:1052B800F3CF8CF0F4CF8DF088518B03F3508D270A
:1052C80089518A03F3508D278CC088F08DC089F0EE
:1052D8001200A69EA69C000EAA6E000EA96EA680BD
:1052E800A8CFE3F0A69EA69C000EAA6E010EA96E9A
:1052F800A680A8CFE4F0120001500302F3CF05F016
:10530800F4CF06F001500402F350062602500302BF
:10531800F350062605C001F006C002F01200870E01
:1053280000018E6FFF0E8F6F81EC10F0C00E9AECAB
:105338002AF0850E00018E6FFE0E8F6F81EC10F043
:105348001200900E00018E6FFF0E8F6F81EC10F02F
:10535800C00E9AEC2AF04B0E00018E6FFE0E8F6F76
:1053680081EC10F01200D70E00018E6FFF0E8F6FC8
:1053780081EC10F0C00E9AEC2AF00E0E00018E6F30
:10538800FF0E8F6F81EC10F01200026E88EC2AF08D
:10539800C58688EC2AF0C9CF03F088EC2AF002B061
:1053A80002D0C59A01D0C58AC58803501200010EE3
:1053B800B7EC2AF0110E1C6E3A0EE82EFED71C2E02
:1053C800FCD700D0CF0E0D6EFF0E0E6EAFEC11F0B5
:1053D80012000001826F000E0001816F3A0E826197
:1053E80005D02F0E826502D0010E816F81C080F03A
:1053F8008031120084B084A202D06AEC27F084B213
:1054080003D01AEC27F0120084B01200F2EC26F058
:1054180012000001E251E45DD8A004D0E251E45D3D
:10542800E46F1200E305E36FE251E45DE46F1200FC
:10543800036E000E026E3A0E036005D02F0E036451
:1054480002D0010E026E02C001F00130120000010C
:10545800816FA69EA69C80C0AAFF81C0A9FFA680D6
:10546800A8CF82F00001825112000001816F8C5098
:105478000F0B8C6E00018139F00B8C108C6E04ECD4
:1054880029F012000001826F000182390F0B39ECFC
:105498002AF00001825139EC2AF012003030303005
:1054A800303030304559230031121801020304010D
:0354B800030001ED
:1054BC008B9C8B948B908B828B8A8B8E530EE82ECD
:1054CC00FED700F01200026E8C500F0B8C6E02385F
:1054DC00F00B8C108C6E30EC29F01200C7B4FED798
:1054EC00C5CF80F01F0E00018017D8B41200F6D77C
:1054FC00BDEC21F0CF0E00018E6FFD0E8F6F81EC95
:10550C0010F01200C7B4FED7C5CF01F01F0E011664
:10551C00D8B41200F7D7036E03380F0B69EC2AF0DE
:10552C00035069EC2AF012000001836F8C94000187
:10553C00835146EC2AF012000001836F8C84000129
:10554C00835146EC2AF012008B9C8B928B9E8B9095
:10555C008B9A8B941200046E8C84045091EC2AF07C
:10556C001200046E8C94045091EC2AF0120020204E
:09557C0020030319045802303029
:1055860074EC2AF081C0C9FF120088EC2AF002C030
:10559600C9FF120074EC2AF0C584120074EC2AF0DC
:1055A600C580120088EC2AF0C584120088EC2AF027
:0455B600C58012009A
:10FD0C00003132334134353642373839432A3023C7
:10FD1C00440001000A006400E80310270000704151
:10FD2C000000C03FCDCC4C3E9A99B93F50104000DA
:10FD3C000410CDCCCC3D6666E63E5468616E6B73A8
:10FD4C0020666F72207573696E6720004F6F707339
:10FD5C002E204920646F6E277420676574005374DD
:10FD6C00617274204C696E653A2028636D290050CD
:10FD7C00617374204F7065726174696F6E733A00B1
:10FD8C004E756D626572206F6620437261636B7392
:10FD9C000052657669657720746865204D656E75CF
:10FDAC002E00746865204D61696E204D656E752E50
:10FDBC002E2E004F7065726174696F6E2054696DE0
:10FDCC00653A00486973746F727920436C6561728F
:10FDDC00656400437261636B73204465746563747E
:10FDEC006564004E756D626572206F6620486F6C9D
:10FDFC006573004E756D626572206F6620436F6E81
:10FE0C00657300253032642D253032642D25303257
:10FE1C006400253032643A253032643A253032643D
:10FE2C0000486F6C65732044657465637465640089
:10FE3C00436F6E6573204465706C6F796564004F19
:10FE4C007065726174696F6E2054696D65006578B8
:10FE5C00697420696E202564207365630043686FA4
:10FE6C006F73652031202D20256400446973746103
:10FE7C006E63652066726F6D00436C65617220481D
:10FE8C006973746F7279004C6F636174696F6E2063
:10FE9C006F6620005472616666696320436F6E65FD
:10FEAC000069742E2E2E20506C6561736500636F93
:10FEBC006E6520757365642075700052657475727B
:10FECC006E696E6720746F004E756D62657220618D
:10FEDC006E64200053746172742061204E6577004B
:10FEEC006D656D6F72792066756C6C0025643A25B2
:10FEFC0030326420616D0025643A25303264207004
:10FF0C006D00433A20636F6E6669726D002020208D
:10FF1C002020456D70747900446574656374656464
:10FF2C003A004465706C6F7965643A004E756D6289
:10FF3C006572206F66004F7065726174696F6E0038
:10FF4C0044697370656E7365720025303264206885
:10FF5C006F757200706C616E412073657400706C0B
:10FF6C00616E42207365740072657475726E696E91
:10FF7C00670043686F6F736520310050726573734F
:10FF8C0020303A00507265737320313A005072651C
:10FF9C00737320323A00507265737320333A0050F9
:10FFAC007265737320343A00507265737320413A52
:10FFBC000025303264207365630025303264206D77
:10FFCC00696E0052756E6E696E6700436C65617286
:10FFDC003F00706C616E413F00706C616E423F007F
:10FFEC0077726F6E67002325642E00446174650080
:04FFFC00323000009F
:020000040020DA
:08000000FFFFFFFFFFFFFFFF00
:020000040030CA
:0E000000FF021F1EFF8381FF0FC00FE00F40A5
:00000001FF
